:100000000C943E000C945B000C945B000C945B0021
:100010000C945B000C945B000C945B000C945B00F4
:100020000C945B000C945B000C945B000C945B00E4
:100030000C945B000C945B000C945B000C945B00D4
:100040000C945B000C945B000C945B000C945B00C4
:100050000C945B000C945B000C945B000C945B00B4
:100060000C945B000C945B003F065B4F666D7D0754
:100070007F6F3F065B4F666D7D077F6F11241FBE4C
:10008000CFEFD8E0DEBFCDBF11E0A0E0B1E0E4EEFD
:10009000F4E002C005900D92A630B107D9F721E037
:1000A000A6E0B1E001C01D92A830B207E1F70E94BE
:1000B000C9000C9470020C9400000F931F93CF930F
:1000C0008C0180E00E949E01C3E09801ADECBCEC85
:1000D0000E94610296958795969587959695879546
:1000E0009C01220F331F880F991F880F991F880FBB
:1000F000991F820F931FB801681B790B8C2F0E94E8
:100100008A019801ADECBCEC0E9461028C0116954D
:1001100007951695079516950795C150B0F6CF919E
:100120001F910F9108950F931F93CF938C0180E03F
:100130000E944E02C3E09801ADECBCEC0E9461024B
:100140009695879596958795969587959C01220F0C
:10015000331F880F991F880F991F880F991F820FCF
:10016000931FB801681B790B8C2F0E943A029801EB
:10017000ADECBCEC0E9461028C01169507951695BA
:10018000079516950795C150B0F6CF911F910F9125
:10019000089567E081E00E94670167E081E00E94C6
:1001A000170280910601909107010E945D008091E5
:1001B0000001909101010E949300809106019091AD
:1001C00007010A9690930701809306012091000190
:1001D000309101012A50310930930101209300012F
:1001E000893E934020F010920701109206018FEF94
:1001F00092E527E0815090402040E1F700C00000E8
:10020000D0CF5C9A5B9A8DE08A95F1F700005C98FC
:1002100008955B988DE08A95F1F700005C988DE079
:100220008A95F1F700005B9A8DE08A95F1F700005E
:100230005C9A089598E05B982DE02A95F1F700000C
:1002400080FF02C05C9A01C05C985B9A2DE02A9501
:10025000F1F700008695915071F75B9854985C9A7D
:100260008DE08A95F1F7000029B1207130E081E03E
:10027000121613060CF080E01216130614F4549AAA
:100280005C989DE09A95F1F700005B9A2DE02A9525
:10029000F1F700005B989DE09A95F1F70000549A01
:1002A0000895CF93811102C0C0E001C0C8E068305A
:1002B00008F067E0C62BC09303010E9401018C2F58
:1002C00080680E941A010E940901CF9108959AB195
:1002D00098619AB99BB1977E9BB90E94510108958C
:1002E000CF93DF93C82FD62F0E94010184E40E9490
:1002F0001A010E9409010E9401018C2F8370806CF9
:100300000E941A018D2F0E941A010E940901DF919B
:10031000CF9108956A3030F4E62FF0E0E859FF4FAE
:10032000649101C060E0813031F4909102019078D5
:10033000692B609302010E9470010895882331F0B7
:100340008091020180688093020105C080910201C2
:100350008F77809302016091020181E00E94700119
:1003600008955A9A599A8DE08A95F1F700005A98A3
:10037000089559988DE08A95F1F700005A988DE01C
:100380008A95F1F70000599A8DE08A95F1F70000FF
:100390005A9A089598E059982DE02A95F1F70000AF
:1003A00080FF02C05A9A01C05A98599A2DE02A95A6
:1003B000F1F700008695915071F7599852985A9A22
:1003C0008DE08A95F1F7000029B1247030E081E0DA
:1003D000121613060CF080E01216130614F4529A4B
:1003E0005A989DE09A95F1F70000599A2DE02A95C8
:1003F000F1F7000059989DE09A95F1F70000529AA4
:100400000895CF93811102C0C0E001C0C8E06830F8
:1004100008F067E0C62BC09305010E94B1018C2F44
:1004200080680E94CA010E94B901CF9108959AB1D3
:1004300096609AB99BB1997F9BB90E940102089579
:10044000CF93DF93C82FD62F0E94B10184E40E947E
:10045000CA010E94B9010E94B1018C2F8370806C87
:100460000E94CA018D2F0E94CA010E94B901DF912A
:10047000CF9108956A3030F4E62FF0E0EE58FF4F48
:10048000649101C060E0813031F490910401907872
:10049000692B609304010E9420020895882331F0A3
:1004A0008091040180688093040105C0809104015B
:1004B0008F77809304016091040181E00E94200203
:1004C0000895A29FB001B39FC001A39F700D811D2D
:1004D0001124911DB29F700D811D1124911D08954D
:0404E000F894FFCFBE
:0604E400E803FF0FFF0F0B
:00000001FF
